:020000040800F2
:10000000C0140020C9160008A1020008A3020008BD
:10001000A7020008AB020008AF02000800000000C1
:10002000000000000000000000000000B302000813
:10003000B502000800000000834A00086D140008A3
:10004000DF160008DF160008DF160008DF160008BC
:10005000DF160008DF160008DF160008DF160008AC
:10006000DF160008DF160008DF160008DF1600089C
:10007000DF160008DF160008DF160008DF1600088C
:10008000DF160008DF160008DF160008DF1600087C
:10009000DF160008DF160008DF160008DF1600086C
:1000A000DF160008DF160008DF160008DF1600085C
:1000B000DF160008DF160008DF160008DF1600084C
:1000C000DF160008DF160008DF160008DF1600083C
:1000D000DF16000837160008DF160008DF160008D4
:1000E000DF160008DF160008DF16000800F002F82F
:1000F00000F03AF80AA090E8000C82448344AAF188
:100100000107DA4501D100F02FF8AFF2090EBAE885
:100110000F0013F0010F18BFFB1A43F0010318473B
:10012000E866000008670000103A24BF78C878C16C
:10013000FAD8520724BF30C830C144BF04680C60ED
:10014000704700000023002400250026103A28BF35
:1001500078C1FBD8520728BF30C148BF0B60704739
:100160001FB51FBD10B510BD04F039FD1146FFF7D6
:10017000F7FF00F054F804F057FD03B4FFF7F2FF67
:1001800003BC01F0FDF9000000BFFEE728E00220FB
:1001900001F02BF90446C01704EBD060C0F3471000
:1001A0003A493B4A1268885439480068401C38492B
:1001B0000860364A0B461B68D25CC2F1800291B2DD
:1001C000334A128890B200F02EFF31480068802830
:1001D00006DB00202E4908604FF6FF7001F079F829
:1001E000D5E770B50446002500BF02F08DFE04F08F
:1001F00021FC05460523274A0021AFF26F0003F0DA
:10020000F9FF0623244A0021AFF2830003F0F2FF36
:100210000A2004F06FFA284604F010FC70BD10B5F7
:100220004FF4165001F0BBF901F02CF900F036FF45
:1002300001F074F801F090F802F029FD0A23174A42
:100240000021AFF2610003F0D5FF02F045FE00206F
:1002500010BD70B500244FF6FF7001F03AF801248C
:1002600010E00A4D2D5DC5F18005ABB2A2B2651E4E
:10027000064E755DC5F18005A9B2651EA8B200F0F5
:1002800060F8641C7F2CECDB70BD00008806002049
:100290000000002084040020840600208402002046
:1002A000704700BFFEE700BFFEE700BFFEE700BFEC
:1002B000FEE770477047000070B505460E461446CD
:1002C0003146284600F0A5FE204600F04DFE70BDE8
:1002D0002DE9F05F06460F4614461D46A01B401C44
:1002E0001FFA80FAE81B401C1FFA80FB681E83B2CD
:1002F000601E82B23946304600F05FFE4FF00008C3
:100300000FE04FF0000906E00A9800F02DFE09F119
:1003100001001FFA80F9D145F6DB08F101001FFA50
:1003200080F8D845EDDBFD484088401E83B2FB488D
:100330000088401E82B20021084600F03EFEBDE863
:10034000F09F2DE9FF4F85B081468A46002004903A
:1003500003900798A0EB09050898A0EB0A06CDF8D2
:100360000890CDF804A0002D01DD012705E00DB9AE
:10037000002702E04FF0FF376D42002E02DD4FF004
:10038000010806E016B94FF0000802E04FF0FF3810
:100390007642B54201DD2C4600E034464FF0000BBA
:1003A00021E0019A91B2029A90B200F03CFE0498CA
:1003B000284404900398304403900498A04205DD3B
:1003C0000498001B04900298384402900398A042BD
:1003D00005DD0398001B03900198404401900BF148
:1003E00001001FFA80FB601C8345DADD09B0BDE81F
:1003F000F08F2DE9F04104460D4616461F462B4668
:10040000324629462046FFF79CFF3B4622462946B6
:100410002046FFF796FF3B46324639462046FFF717
:1004200090FF3B46324629463046FFF78AFFBDE83B
:10043000F081F8B504460D4616461F46B8480088B8
:100440003B463246294600902046FFF741FFF8BD63
:100450002DE9F04104460D4616461F46DDF818808A
:10046000EA1991B2A21990B24246FFF725FFEA19A4
:1004700091B2A21B90B24246FFF71EFFEA1B91B257
:10048000A21990B24246FFF717FFEA1B91B2A21BD6
:1004900090B24246FFF710FFAA1991B2E21990B24A
:1004A0004246FFF709FFAA1991B2E21B90B24246F9
:1004B000FFF702FFAA1B91B2E21990B24246FFF782
:1004C000FBFEAA1B91B2E21B90B24246FFF7F4FE7C
:1004D000BDE8F0812DE9FF4F81B08246174698466E
:1004E000DDF838B0002445464FEA4800C0F1030665
:1004F000BBF1000F1FD01BE0A14608E04B4622468F
:10050000009750460299FFF7A3FF09F10109A94599
:10051000F4DD002E04DA042000FB0460861D06E0F2
:10052000601B042101FB006000F10A066D1E641CC3
:10053000AC42E1DD18E015E02B462246009750461C
:100540000299FFF785FF002E04DA042000FB046007
:10055000861D06E0601B042101FB006000F10A0615
:100560006D1E641CAC42E7DD05B0BDE8F08F2DE9DF
:10057000FF4F83B081468A469346DDE910646848A0
:1005800000880290A6F12000C6B204EBD47009EBFB
:100590006000401E82B20AEB0400401E83B2514646
:1005A0004846019400F009FD129860BB002527E041
:1005B0000C2C07D106EB46005A4901EB800010F8DD
:1005C000058004E0584800EB061010F8058000276D
:1005D0000FE008F0010020B10BF0FF0000F0B0FCCC
:1005E00003E00699C8B200F0ABFC4FEA6808781C3B
:1005F000C7B204EBD471B7EB610FEADB681CC5B27C
:10060000A542D5DB2DE0002529E00C2C07D106EB17
:100610004600444901EB800010F8058004E04248A0
:1006200000EB061010F80580002711E03C48A0F808
:1006300000B008F0010038B10AEB050291B209EBF5
:10064000070290B200F0EFFC4FEA6808781CC7B2CE
:1006500004EBD471B7EB610FE8DB681CC5B2A542AF
:10066000D3DB2F49029808802C484088401E83B273
:100670002A480088401E82B20021084600F09DFCF6
:1006800007B0BDE8F08F2DE9FE4F04460E469146B7
:100690000C9F23480088029001940096002561E099
:1006A0001E480088401EA04204DB1C484088401EB3
:1006B000B04201DABDE8FE8F3D783A2D01D10A251E
:1006C00006E02E2D01D10B2502E0A5F13000C5B2C8
:1006D00001944FF0000837E005EB4500134901EBAA
:1006E000001010F808A04FF0000B25E00C48A0F80F
:1006F00000900AF0800018B13146204600F093FCCB
:100700004FF6FF7000EA4A0A601C84B20198201A72
:100710000C280DD1019C701C86B210E00807002047
:1007200018000020444C0008B8500008A8560008E3
:100730000BF1010000F0FF0BBBF1080FD6DB00BF8F
:1007400008F1010000F0FF08B8F1300FC4DB0A2DFA
:1007500003DA04F1100084B202E004F1080084B26C
:10076000009E7F1C38787E2802DC3878202897DAB3
:10077000FB490298088000BF9CE72DE9FE4306462E
:100780000F4615461C46DDF828801DE0F548008818
:10079000401EB04204DBF3484088401EB84201DAF4
:1007A000BDE8FE8320788DE82101EF480388EC48FE
:1007B000028839463046FFF7DAFE284605EBD0714D
:1007C00006EB61018EB2641C20787E2802DC207862
:1007D0002028DBDA00BFE3E710B50246012000E085
:1007E00050430B1EA1F10104E1B2F9D110BD2DE976
:1007F000FF4F83B0074691461E46109C4FF0000AFB
:10080000002543E0701B401EC1B20A20FFF7E4FF41
:10081000B9FBF0F00A21B0FBF1F201FB1208BAF1CA
:10082000000F1BD1701EA84218DDB8F1000F13D1C4
:1008300001202021A346CDE90014029004EBDB71D6
:10084000491001FB057188B2C7490B88C4490A8861
:100850000499FFF78CFE17E04FF0010A012108F11F
:100860003000C0B2A346CDE90141009004EBDB713A
:10087000491001FB057188B2BB490B88B8490A8849
:100880000499FFF774FE00BF681CC5B2B542B9DB1E
:1008900007B0BDE8F08F2DE9FC5F0546884691461C
:1008A0009A46DDF830B000954320019000245FE0C7
:1008B00004EB0410AD4911F810009BF800108842B9
:1008C00053D104EB0410A94901EB400040789BF898
:1008D0000110884249D108F10F0083B205F10F00E1
:1008E00082B24146284600F068FB00263BE0002724
:1008F00034E00D9890B904EB04109C4901EB4000E2
:10090000801C805D80213941084018B1484600F0C4
:100910002BFB21E0504600F027FB1DE09048A0F89B
:10092000009004EB0410914901EB4000801C805DB5
:1009300080213941084018B14146284600F073FB38
:10094000681C85B20098281A102805D1009D08F16E
:1009500001001FFA80F803E0781CC7B2082FC8DB3B
:1009600000BF701CC6B2202EC1DB00BF601C84B269
:10097000019884429CDB7B484088401E83B27948C2
:100980000088401E82B20021084600F016FBBDE838
:10099000FC9F2DE9FC5F0546884691469A46DDF8A6
:1009A00030B0009504200190002467E004EB84003F
:1009B00000EB44106E4911F810009BF800108842BB
:1009C00059D104EB840000EB4410694901EB40006D
:1009D00040789BF8011088424DD108F1170083B28E
:1009E00005F1170082B24146284600F0E6FA0026DB
:1009F0003FE0002738E00D98A0B904EB840000EB3D
:100A000044105B4901EB4000801C805D802139412E
:100A1000084018B1484600F0A7FA23E0504600F01D
:100A2000A3FA1FE04E48A0F8009004EB840000EB0E
:100A300044104F4901EB4000801C805D802139410A
:100A4000084018B14146284600F0EDFA681C85B20E
:100A50000098281A182805D1009D08F101001FFAF6
:100A600080F803E0781CC7B2082FC4DB00BF701CFD
:100A7000C6B2482EBDDB00BF601C84B20198844220
:100A800094DB38484088401E83B236480088401EB8
:100A900082B20021084600F090FABDE8FC9F2DE9E3
:100AA000FC5F0546884691469A46DDF830B00095D1
:100AB0000820019000246BE004EB84102D4911F80C
:100AC00010009BF8001088425FD104EB8410294984
:100AD00001EB400040789BF80110884255D108F1A5
:100AE0001F0083B205F11F0082B24146284600F084
:100AF00064FA002647E0002740E00D9890B904EB27
:100B000084101C4901EB4000801C805D802139412C
:100B1000084018B1484600F027FA2DE0504600F092
:100B200023FA29E00E48A0F8009004EB8410114944
:100B300001EB4000801C805D80213941084018B1E4
:100B40004146284600F06FFA681C85B20098281AC2
:100B5000202811D1009D08F101001FFA80F80FE054
:100B600018000020080700201A000020E85800089C
:100B7000CE610008F6620008781CC7B2082FBCDB03
:100B800000BF701CC6B2802EB5DB00BF601C84B2F3
:100B90000198844290DB80484088401E83B27E48A2
:100BA0000088401E82B20021084600F006FABDE827
:100BB000FC9F2DE9FF4F83B0064688469146DDE94C
:100BC0001147109DB2464FF0000B73E0BBF1000FD0
:100BD00042D104EBD471704A1288A2EB6101B14298
:100BE00004DB6D494988091B414502DA07B0BDE8BD
:100BF000F08F2878802802DD4FF0010B5AE028782A
:100C00000D2806D108EB04001FFA80F856466D1C2B
:100C100020E00C2C01D0102C0FD128788DE8910009
:100C20004A4641463046069BFFF7A1FC204604EBAE
:100C3000D07106EB61018EB20CE0102128788DE8AE
:100C400083004A4641463046069BFFF790FC06F17A
:100C5000080086B26D1C2DE04F480088001BB04292
:100C600004DB4D484088001B404500DABEE74FF0EA
:100C7000000B202C08D1CDE900574A4641463046AA
:100C8000069BFFF70CFF12E0182C08D1CDE90057A6
:100C90004A4641463046069BFFF77BFE07E0CDE91A
:100CA00000574A4641463046069BFFF7F4FDAD1C0F
:100CB000301986B22878002888D100BF96E72DE940
:100CC000FF4F83B004460F469046DDE9119A109D10
:100CD000284603F061FF86B22F490988A1EBC600C0
:100CE00000EBD071C1F34F0B04EB0B0188B28DE820
:100CF000200642463946069BFFF75BFF07B0BDE87A
:100D0000F08F2DE9F04706460F46154607F12700FC
:100D100083B206F1270082B23946304600F04DF921
:100D200000240AE015F8149005EB440090F80180C7
:100D300049EA082000F018F9641CB4F5C86FF1DB2B
:100D400015484088401E83B213480088401E82B276
:100D50000021084600F031F9BDE8F0872DE9F041A7
:100D600005464FF6FF7000F0B4FA7F231A460021C3
:100D7000084600F022F9002409E015F8147005EB8C
:100D80004400467847EA062000F0EEF8641CB4F50B
:100D9000804FF2DBBDE8F081080700200021082128
:100DA00017E000F0800222B14FF40042FE4B1A60BF
:100DB00004E04FF40042FC4B1B1D1A604FF400523C
:100DC000F94B1B1D1A601B1F1A604206100E4A1EAB
:100DD000D1B20029E5DC704703460A46002105E050
:100DE000491CB1F5FA6F01D900207047EF4800881F
:100DF00000F002000028F3D0EC48001D0280002122
:100E000005E0491CB1F5FA6F01D90020EDE7E7488C
:100E1000008800F001000028F3D0E448001D00889D
:100E2000C0B2E2E702884FF6C7731A400280012978
:100E300002D10288028003E0028842F02002028090
:100E4000028842F040020280704700B587B001215D
:100E5000092000F0DDFF4FF42040ADF8040003202E
:100E60008DF8060018208DF8070001A9CE4810382B
:100E700000F012FD4FF48040ADF8040048208DF8DA
:100E8000070003208DF8060001A9C748103800F0BC
:100E900003FD41F20200ADF8040003208DF80600C6
:100EA00010208DF8070001A9BF48103800F0F4FCAD
:100EB0004FF48051BC48103800F09DFD0221BA4823
:100EC000103800F098FD0121880300F0AEFF0020EB
:100ED000ADF808004FF48270ADF80A000020ADF8BC
:100EE0000C00ADF80E00ADF810004FF40070ADF836
:100EF00012000020ADF81400ADF816000720ADF880
:100F0000180002A9A948083801F038FC0121A748B7
:100F1000083801F0D8FC07B000BD10B504464FF406
:100F20008050A149091D086002200860E1B29F4875
:100F30000838FFF751FF4FF480509B49086010BDFF
:100F400010B504464FF480509749091D08600220EF
:100F5000091F0860214695480838FFF73DFF4FF408
:100F600080509149086010BD10B504464FF4805080
:100F70008D49091D08600220091F086021128B4855
:100F80000838FFF729FFE1B288480838FFF724FF47
:100F90004FF480508449086010BD30B505460C46BA
:100FA0002846FFF7BAFFE0B2FFF7CAFF30BD00B531
:100FB0007F490889FFF7B1FF00BDF0B504460D4633
:100FC00016461F467A494889FFF7A7FF2012FFF708
:100FD000B7FFE11CC8B2FFF7B3FF3012FFF7B0FF55
:100FE000F11CC8B2FFF7ACFF71498889FFF795FF84
:100FF0002812FFF7A5FFA91CC8B2FFF7A1FF3812FE
:10100000FFF79EFFB91CC8B2FFF79AFFFFF7CFFFAB
:10101000F0BD30B504460D462B46224629462046F3
:10102000FFF7CBFF30BD30B504460D4629462046BC
:10103000FFF7EFFF4FF47840FFF796FF30BD08B59C
:101040000121082000F0E4FE4FF20200ADF800009C
:1010500003208DF8020010208DF8030069465248E5
:10106000103800F019FC08BD10B5642000F05BFAE0
:10107000322000F058FA10BD00B52C204C490881F0
:10108000012088718020088048802A2048812B20F8
:101090008881A8213620FFF780FF00BD10B5FFF73B
:1010A000D4FEFFF7E1FF1120FFF737FF782000F0B3
:1010B0003AFAB120FFF731FF0120FFF741FF2C2062
:1010C000FFF73EFF2D20FFF73BFFB220FFF725FF84
:1010D0000120FFF735FF2C20FFF732FF2D20FFF70F
:1010E0002FFFB320FFF719FF0120FFF729FF2C2066
:1010F000FFF726FF2D20FFF723FF0120FFF720FF3A
:101100002C20FFF71DFF2D20FFF71AFFB420FFF75B
:1011100004FF0720FFF714FFC020FFF7FEFEA22008
:10112000FFF70EFF0220FFF70BFF8420FFF708FFF9
:10113000C120FFF7F2FEC520FFF702FFC220FFF734
:10114000ECFE0A20FFF7FCFE0020FFF7F9FEC320AB
:10115000FFF7E3FE8A20FFF7F3FE2A20FFF7F0FEF9
:10116000C420FFF7DAFE8A20FFF7EAFEEE20FFF741
:10117000E7FEC520FFF7D1FE0E20FFF7E1FE362087
:10118000FFF7CBFEC820FFF7DBFEE020FFF7C5FE30
:101190000F20FFF7D5FE1A20FFF7D2FE0F20FFF732
:1011A000CFFE182006E00000100C01400838004077
:1011B00008070020FFF7C4FE2F20FFF7C1FE2820FC
:1011C000FFF7BEFE2020FFF7BBFE2220FFF7B8FE90
:1011D0001F20FFF7B5FE1B20FFF7B2FE2320FFF70D
:1011E000AFFE3720FFF7ACFE0020FFF7A9FE072077
:1011F000FFF7A6FE0220FFF7A3FE1020FFF7A0FED8
:10120000E120FFF78AFE0F20FFF79AFE1B20FFF771
:1012100097FE0F20FFF794FE1720FFF791FE332073
:10122000FFF78EFE2C20FFF78BFE2920FFF788FEAC
:101230002E20FFF785FE3020FFF782FE3020FFF7DB
:101240007FFE3920FFF77CFE3F20FFF779FE00206C
:10125000FFF776FE0720FFF773FE0320FFF770FE0F
:101260001020FFF76DFE2A20FFF757FE0020FFF742
:1012700067FE0020FFF764FE0020FFF761FE7F207D
:10128000FFF75EFE2B20FFF748FE0020FFF758FE19
:101290000020FFF755FE0020FFF752FE9F20FFF7CA
:1012A0004FFEF020FFF739FE0120FFF749FEF62040
:1012B000FFF733FE0020FFF743FE3A20FFF72DFE35
:1012C0000520FFF73DFE2920FFF727FEFFF7D4FE9C
:1012D00010BD70B5064610484088401E83B20E48C7
:1012E0000088401E82B200210846FFF766FE0024F7
:1012F0000CE0002504E03046FFF736FE681C85B29E
:1013000005484088A842F6DC601C84B20248008888
:10131000A042EEDC70BD00000807002008B50121E6
:10132000102000F075FD4FF40050ADF800001020C3
:101330008DF8030003208DF802006946044800F090
:10134000ABFA4FF40051034800F053FB08BD000016
:1013500000100140000C014000B587B001214FF49E
:10136000037000F055FD4FF4004000F0B5FC042080
:10137000ADF8040000208DF8070001A9324800F004
:101380008BFA0820ADF8040001A92F4800F084FA78
:101390002E4800F0A5FF002002908DF80C008DF87B
:1013A0000D004FF4602004900020059001208DF87E
:1013B000180002A9254800F0BAFF0121234800F0D7
:1013C000E2FF224801F001F800BF204801F002F8D6
:1013D0000028FAD11D4801F007F800BF1B4801F0B2
:1013E00008F80028FAD107B000BD10B50446032361
:1013F00001222146154801F032F80121134801F07D
:1014000002F800BF0221114801F06EF90028F9D05E
:101410000E4801F08BF810BD2DE9F04107460C464F
:101420000025002608E03846FFF7DFFF05440520C9
:1014300000F079F8701CC6B2A642F4DBB5FBF4F0FC
:1014400080B2BDE8F08100000008014000240140A6
:1014500010B501F085FC10BD10B501F0C6FC10BD43
:1014600010B50446204603F00DFA10BD10B53E48F5
:101470000078012805D101F020FC01F064FD01F0A5
:1014800037FC10BD10B56FF0040000F086F9374846
:1014900000683749B0FBF1F03649087033480068FE
:1014A0003349B0FBF1F44FF4FA704443052032495C
:1014B00008804FF0E020006940F002004FF0E0218A
:1014C000086108464461006940F00100086110BDF0
:1014D0002DE9F047074600264FF0E020D0F81490A1
:1014E0002448007807FB00F800BFFFF7B1FF4FF07A
:1014F000E020856911E04FF0E0208469AC420CD017
:10150000AC4202D2281B064403E0A9EB04002844A5
:1015100006442546464500D300E0ECE700BFFFF750
:101520009BFFBDE8F08770B504460F480078A0B176
:101530001248007888B910480088844206DB0E48BB
:10154000008894FBF0F52846FFF78AFF0A480088D8
:1015500094FBF0F100FB114084B24FF47A7104FB6C
:1015600001F0FFF7B5FF70BD660000200400002009
:1015700000127A001E0000202000002059000020E8
:10158000014600BF704700BF4B4A128802F040027C
:10159000002AF9D0C2B2484B1B1D1A80704710B503
:1015A00086B00446012144F2040000F031FC4FF4FF
:1015B0000070ADF8140003208DF8160018208DF887
:1015C000170005A93D4800F067F94FF48060ADF8B9
:1015D000140004208DF8170005A9384800F05CF9C4
:1015E00025208DF8000003208DF801008DF8020001
:1015F00001208DF80300684600F085F80194002072
:10160000ADF80800ADF80A00ADF80C00ADF8100018
:101610000C20ADF80E0001A9274800F0A0FC012223
:1016200040F22551244800F032FD0121224800F00B
:1016300022FD06B010BD10B501F03FFB40F2255170
:101640001D4800F009FE10B31B4800F085FDC4B230
:101650001B48008800F40040C8B91948008800F40D
:10166000804060B10A2C03D000201549088020E09A
:101670001348008840F400401149088019E00D2CFF
:1016800006D10F48008840F480400D49088010E0E2
:101690000B480088C0F30D000A490C540848008824
:1016A000401C0749088008460088C72801DD002043
:1016B000088001F01DFB10BD00380140000801400A
:1016C000280000201607002008480047FEE7FEE734
:1016D000FEE7FEE7FEE7FEE7FEE7FEE7FEE7FEE7E2
:1016E00003480449024A044B70470000ED0000081B
:1016F000C0120020C0140020C01200203149014354
:10170000314A1160704770B5002100230F22C47860
:1017100004B32D4C246804F4E064C4F5E064210AA9
:10172000C1F10403CA40447804FA03F184781440F8
:1017300021430901254C0678A155047804F01F05C2
:101740000124AC4005786D11AD0005F1E025C5F828
:10175000004109E0047804F01F050124AC401C4D51
:101760000678761145F8264070BD1A4A0A400243B1
:10177000154B1B1F1A60704739B1134A121D1268AE
:101780000243114B1B1D1A6006E00F4A121D12681E
:1017900082430D4B1B1D1A607047042808D14FF07F
:1017A000E021096941F004014FF0E022116107E0F6
:1017B0004FF0E021096921F004014FF0E0221161AE
:1017C000704700000000FA050CED00E000E400E0C6
:1017D00080E100E080FFFF1F10B50446CC48844242
:1017E00008D10121042000F02DFB0021042000F08D
:1017F00029FB46E0C748844208D10121082000F0B7
:1018000021FB0021082000F01DFB3AE0C248844281
:1018100008D10121102000F015FB0021102000F05C
:1018200011FB2EE0BD48844208D10121202000F0A8
:1018300009FB0021202000F005FB22E0B84884428B
:1018400008D10121402000F0FDFA0021402000F0E5
:10185000F9FA16E0B348844208D10121802000F053
:10186000F1FA0021802000F0EDFA0AE0AE4884424F
:1018700007D10121801500F0E5FA0021A01500F044
:10188000E1FA10BD10B50121084600F0DBFA002195
:10189000012000F0D7FA10BD2DE9F04102460025E5
:1018A0000026002000230024002791F803C00CF03C
:1018B0000F0591F803C00CF0100CBCF1000F03D021
:1018C00091F802C04CEA050591F800C0BCF1000F88
:1018D00031D0146800202BE04FF0010C0CFA00F31B
:1018E000B1F800C00CEA03069E4220D183004FF0FD
:1018F0000F0C0CFA03F7BC4305FA03FC4CEA040492
:1019000091F803C0BCF1280F06D14FF0010C0CFA7E
:1019100000FCC2F814C00AE091F803C0BCF1480F03
:1019200005D14FF0010C0CFA00FCC2F810C0401CAD
:101930000828D1D31460B1F800C0BCF1FF0F34DD2A
:10194000546800202EE000F1080C4FF0010808FA5E
:101950000CF3B1F800C00CEA03069E4221D18300CB
:101960004FF00F0C0CFA03F7BC4305FA03FC4CEAEA
:10197000040491F803C0BCF1280F05D100F1080C54
:1019800008FA0CF8C2F8148091F803C0BCF1480FB3
:1019900007D100F1080C4FF0010808FA0CF8C2F862
:1019A0001080401C0828CED35460BDE8F0814FF66B
:1019B000FF710180022181700421C17070470246CD
:1019C000002093680B400BB1012000E0002070471D
:1019D0000146886880B2704702460020D3680B40F9
:1019E0000BB1012000E0002070470146C86880B2BA
:1019F000704701617047416170470AB1016100E0C1
:101A000041617047C16070474FF480320A43826180
:101A10008161826182698269704702460020434B7E
:101A200018684FF68073184040EA021008433F4B95
:101A3000186070473E49C8617047F0B50A460023F8
:101A400000240021002500F00046B6F1004F02D12D
:101A5000364EF16901E0354E7168C0F3034583B23B
:101A600000F44016B6F5401F08D121F070612F4EEA
:101A7000766826F070662D4F7E6012E000F48016C6
:101A8000B6F5801F06D1032606FA05F4A14341F0FE
:101A9000706106E0460D360103FA06F6B14341F0E7
:101AA000706122B1460D360103FA06F6314300F0AB
:101AB0000046B6F1004F02D11C4EF16101E01B4E11
:101AC0007160F0BD30B500228B071C0F0F2303FAA5
:101AD00004F2164B08338C1053F824309343134C04
:101AE00008348D1044F8253023468C1053F82430E8
:101AF0008C07240F00FA04F423430C4C08348D1097
:101B000044F8253030BD0A49DC31086070470000D8
:101B100000080140000C0140001001400014014089
:101B200000180140001C014000200140000001405D
:101B300000002042DF48006840F00100DD490860F5
:101B400008464068DC490840DA49486008460068B1
:101B5000DA490840D74908600846006820F4802028
:101B600008600846406820F4FE0048604FF41F00FB
:101B700088607047CF49096821F48031CD4A1160EF
:101B80001146096821F480211160B0F5803F03D02F
:101B9000B0F5802F0ED106E0C649096841F48031C6
:101BA000C44A116007E0C349096841F4A021C14A51
:101BB000116000E000BF00BF704710B50146002271
:101BC000002300204A11012A02D1BA4C236806E002
:101BD000022A02D1B74C236A01E0B64C636A01F0D5
:101BE0001F02012494401C400CB1012000E00020A1
:101BF00010BD38B5002000900024002500BF312022
:101C0000FFF7DBFF05460098401C00900098B0F5F8
:101C1000A06F01D0002DF2D03120FFF7CEFF08B128
:101C2000012400E00024204638BD01460020A14ADE
:101C3000106820F0F80040EAC10010607047A04929
:101C400008607047024600209A4B586820F47C10C8
:101C500042EA01031843974B586070479849086659
:101C6000704701460020934A506820F00300084363
:101C7000506070478F48406800F00C007047014684
:101C800000208C4A506820F0F000084350607047F4
:101C900001460020874A506820F4E0600843506005
:101CA000704701460020834A506820F4605040EAA3
:101CB000C1005060704729B17E4A527A02437D4B81
:101CC0005A7204E07B4A527A82437A4B5A727047C6
:101CD0007B49D8310860704701460020754A50683A
:101CE00020F440400843506070470021714A203280
:101CF0001170704A82F82010012802D004280AD1FD
:101D000004E001216B4A2032117005E00521694A87
:101D10002032117000E000BF00BF704769490860C1
:101D200070476449096A0143624A11627047654914
:101D300044390860704730B5002100220024002398
:101D40005C4D6D6805F00C0121B1042905D008290E
:101D500023D105E05C4D056022E05B4D05601FE08E
:101D6000544D6D6805F47012524D6D6805F4803461
:101D7000022505EB92421CB9544D554305600BE01A
:101D80004C4D6D6805F400351DB1504D554305604F
:101D900002E04D4D5543056002E04B4D056000BF2C
:101DA00000BF444D6D6805F0F0010909484D6B5CBA
:101DB0000568DD4045603F4D6D6805F4E061090A46
:101DC000434D6B5C4568DD4085603A4D6D6805F4B8
:101DD0006051C90A3E4D6B5C4568DD40C560354DBC
:101DE0006D6805F44041890B3A4D6B5CC568B5FBE5
:101DF000F3F5056130BD29B12E4A526902432D4BDE
:101E00005A6104E02B4A526982432A4B5A61704757
:101E100029B1284A92690243264B9A6104E0254A77
:101E200092698243234B9A61704729B1214AD26952
:101E30000243204BDA6104E01E4AD26982431D4B03
:101E4000DA61704729B11B4AD2680243194BDA6044
:101E500004E0184AD2688243164BDA60704729B111
:101E6000144A12690243134B1A6104E0114A1269C1
:101E70008243104B1A61704712494039086070471D
:101E80000F49C86470470B49C87170470948406AD8
:101E900040F0807007494862704701460020054ABB
:101EA00092680A400AB1012000E000207047014911
:101EB00088727047001002400000FFF8FFFFF6FE36
:101EC000000042428004424200127A0000093D00B4
:101ED0002A0000203A00002010B50446FB48844246
:101EE00009D101218803FFF7ADFF00214FF48040A5
:101EF000FFF7A8FF32E0F648844209D101214804E7
:101F0000FFF7ADFF00214FF40030FFF7A8FF25E0F9
:101F1000F048844209D101218804FFF7A0FF002185
:101F20004FF48020FFF79BFF18E0EB48844209D173
:101F30000121C804FFF793FF00214FF40020FFF7B1
:101F40008EFF0BE0E548844208D101210805FFF728
:101F500086FF00214FF48010FFF781FF10BD2DE9AF
:101F6000F04786B005460E460024A24600BFA146B3
:101F70000027B08900B100BF2F462C8A4CF6FF70B5
:101F80000440F08804432C82AC894EF6F3100440E0
:101F9000B08831890843718908430443AC81AC8A15
:101FA0004FF6FF400440B0890443AC8201A8FFF71C
:101FB000C2FEC648874202D1DDF810A001E0DDF87C
:101FC0000CA0A88900F4004040B10AEBCA0000EB65
:101FD0000A1031684900B0FBF1F807E00AEBCA00CB
:101FE00000EB0A1031688900B0FBF1F86420B8FBFF
:101FF000F0F004012009642101FB1089A88900F494
:10200000004040B1322000EBC900B0FBF1F000F01D
:102010000700044308E0322000EB09106421B0FB04
:10202000F1F000F00F0004432C8106B0BDE8F0870A
:102030004FF41651016000218180C18001810C2183
:10204000418100218181704710B502460020108A2D
:102050004FF2FF0318400B884C8823438C8823439E
:10206000CC8823431843108210BD00210180418099
:102070008180C180704721B1828942F400528281FF
:1020800004E082894DF6FF731A4082817047F0B5F3
:102090000346002400260025002040F66A17B942B6
:1020A00000D100BF1846C1F3421401F01F060127FA
:1020B00007FA06F5012C01D10C3004E0022C01D105
:1020C000103000E014301AB107682F43076002E0B7
:1020D0000768AF430760F0BD1AB1838A0B43838260
:1020E00002E0838A8B4383827047028A4FF6F07343
:1020F0001A400282028A0A430282704782894FF2A2
:10210000FF731A40828182890A438281704721B11C
:10211000828942F00202828104E082894FF6FD73D7
:102120001A4082817047028A4FF6DF731A4002829A
:10213000028A0A430282704721B1028A42F4804235
:10214000028204E0028A4BF6FF731A400282704753
:10215000C1F308028280704701468888C0F30800F6
:102160007047818941F0010181817047028BD2B2B1
:102170000283028B42EA012202837047028B02F43F
:102180007F420283028B0A430283704721B1828A15
:1021900042F02002828204E0828A4FF6DF731A4006
:1021A0008282704721B1828A42F01002828204E06A
:1021B000828A4FF6EF731A408282704721B1828A79
:1021C00042F00802828204E0828A4FF6F7731A40D6
:1021D0008282704721B1828942F40042828103E009
:1021E0008289C2F30E028281704721B1828A42F451
:1021F0000062828204E0828A4FF2FF731A40828278
:102200007047828A4FF6FB731A408282828A0A43A1
:102210008282704721B1828A42F00202828204E007
:10222000828A4FF6FD731A40828270470246002070
:10223000B1F5007F00D100BF13880B400BB1012026
:1022400000E00020704701F40072B2F5007F00D179
:1022500000BFCA430280704770B5024600240023C5
:102260000025002040F66A16B14200D100BFC1F33C
:10227000421501F01F03012606FA03F3012D02D1D6
:102280009689334006E0022D02D1168A334001E0E0
:10229000968A33400C12012606FA04F4168834405C
:1022A00013B10CB1012000E0002070BD10B5002278
:1022B000002340F66A14A14200D100BF0A12012493
:1022C0009440A3B2DC43048010BD000000380140FC
:1022D0000044004000480040004C004000500040D6
:1022E00010B50446FA48844208D101214015FFF791
:1022F000A9FD00216015FFF7A5FD17E0F548844210
:1023000008D101210015FFF79DFD00212015FFF7E1
:1023100099FD0BE0F048844208D10121C803FFF782
:1023200091FD00214FF40040FFF78CFD10BD30B54A
:102330000246002000235068E84C20400D790C68CC
:1023400044EA0524204350609068E54C2040D1E9E0
:1023500002542C434D7944EA450420439060D06AEE
:1023600020F470000C7C641EE4B2234340EA035066
:10237000D06230BD00210160017141718160C16096
:1023800001210174704721B1826842F0010282602C
:1023900003E0826822F001028260704721B1826806
:1023A00042F48072826003E0826822F4807282606C
:1023B000704710B50023CBB21AB144681C43446087
:1023C00002E044689C43446010BD816841F008010C
:1023D00081607047014600208A6802F008020AB155
:1023E000012000E000207047816841F00401816015
:1023F0007047014600208A6802F004020AB10120F9
:1024000000E00020704721B1826842F4A00282609F
:1024100003E0826822F4A002826070470146002037
:102420008A6802F480020AB1012000E000207047AF
:1024300010B50A4600210023416821F46041531E73
:1024400041EA4331416010BD21B1426842F400626B
:10245000426003E0426822F4006242607047F0B5D7
:1024600004460D4600200021092D11DDE068A5F18C
:102470000A0606EB4607072606FA07F18843A5F188
:102480000A0606EB460603FA06F10843E0600CE094
:10249000206905EB4507072606FA07F1884305EB97
:1024A000450603FA06F108432061072A0FDA606B3C
:1024B000561E06EB86071F2606FA07F18843561EAE
:1024C00006EB860605FA06F10843606322E00D2A52
:1024D0000FDA206BD61F06EB86071F2606FA07F1D8
:1024E0008843D61F06EB860605FA06F108432063EB
:1024F00010E0E06AA2F10D0606EB86071F2606FA39
:1025000007F18843A2F10D0606EB860605FA06F1EF
:102510000843E062F0BD21B1826842F4801282601B
:1025200003E0826822F48012826070470146C86C22
:1025300080B2704766484C300068704721B14268ED
:1025400042F48062426003E0426822F480624260AA
:10255000704721B1426842F48052426003E0426811
:1025600022F48052426070470A460021816821F4BB
:10257000E04111438160704721B1826842F400421A
:10258000826003E0826822F400428260704721B1D9
:10259000826842F40212826003E0826822F402122E
:1025A00082607047014600208A6802F400120AB176
:1025B000012000E000207047F0B5044615460020D9
:1025C00000220026092911DDE068A1F10A0707EBC6
:1025D000470C072707FA0CF29043A1F10A0707EB13
:1025E000470703FA07F21043E0600CE0206901EBB3
:1025F000410C072707FA0CF2904301EB410703FA5D
:1026000007F210432061A06BC0F30156EF1C06F1E6
:10261000010CA7EB0C0707EB870C1F2707FA0CF23E
:102620009043EF1C06F1010CA7EB0C0707EB8707A3
:1026300001FA07F21043A063F0BD10B50A4600216D
:102640000023816B21F44011531E41EA0351816341
:1026500010BD08B5002300930090009B0B4400932D
:10266000009B1A6008BD08B5024600200090009249
:1026700001F12800009B184400900098006880B287
:1026800008BD0A4600214168164B194011434160BC
:1026900070474162826270470A460021416821F01A
:1026A0001F0111434160704740B109490831096871
:1026B00041F40001064A0832116007E0044908317C
:1026C000096821F40001024A0832116070470000D5
:1026D0000024014000280140003C0140FFFEF0FFC3
:1026E000FDF7F1FFFFFD3FFF0246002013680B409E
:1026F0000BB1012000E000207047CA430260704720
:1027000070B502460020002300240B125568CEB29B
:1027100005EA060415681D4015B10CB1012000E062
:10272000002070BD00220A12D343036070470000EE
:1027300010B50446BE48844208D101218014FFF739
:1027400081FB0021A014FFF77DFB16E0B94884420D
:1027500008D101210014FFF782FB00212014FFF7AC
:102760007EFB0AE0B448844207D10121C013FFF781
:1027700076FB0021E013FFF772FB10BD10B50022BD
:10278000028802F441520B884C8823438C882343EF
:10279000CC8823430C8923434C8923438C892343CE
:1027A000CC8923431A430280838B4FF2FF7423406A
:1027B00083830B8A038210BD2DE9F04F85B0054657
:1027C0000C464FF0000902274FF000084FF0010BB4
:1027D0000026B246A88B4FF240010840A883022091
:1027E0002884B5F81C90A068022801D100BF38E009
:1027F000A08810B94FF0010B01E04FF0020B8D489B
:10280000854200D100E000BF6846FFF794FADDF88A
:1028100000A0E088B0F5007F0AD14FEA1A2000EB53
:1028200080004000A168B0FBF1F0401D86B20BE0D3
:102830004FEA4B10BAFBF0F000EB80004000A168BB
:10284000B0FBF1F0401D86B20A20B6FBF0F606F0B0
:102850000108A6EB0800C0F34F074FF6FF7000EA2F
:102860000828022F01DBFF2F02DD02274FF00008AE
:10287000E08840EA080038432884A088A1890843FA
:10288000618808432188084340F4006040EA090950
:10289000A5F81C9005B0BDE8F08F002101804180B3
:1028A0008180C180018141818181C18107210182B3
:1028B00070470021018041808180C18002218160B8
:1028C00000218181704721B1028842F040020280DC
:1028D00004E002884FF6BF731A400280704721B1AE
:1028E000828B42F48062828304E0828B4FF6FF3356
:1028F0001A408283704730B5002400230C11012553
:10290000A540ABB21AB185881D43858002E0858859
:102910009D43858030BD1AB183880B43838002E0DC
:1029200083888B4383807047818170470146888903
:1029300070474FF6FF62914204D0028842F48072E1
:10294000028004E002884FF6FF631A40028070475D
:1029500021B1828842F00402828004E082884FF62E
:10296000FB731A408280704702884FF2FF731A404F
:10297000028002880A4302807047018841F4805136
:102980000180704721B1028842F40052028004E0C5
:1029900002884DF6FF731A400280704702460020FD
:1029A000012901D0108B00E0908A70470146088A07
:1029B0007047B1F5804F04D1028842F48042028012
:1029C00004E002884BF6FF731A400280704702460B
:1029D000002013890B400BB1012000E0002070475C
:1029E000CA4302817047F0B502460020002400234C
:1029F000002501F00F070126BE40B4B20B110126DD
:102A00009E40B3B2968806EA03051689264016B1A1
:102A10000DB1012000E00020F0BD10B5002201F052
:102A20000F040123A3409AB2D343038110BD0000D9
:102A30000030014000380040003C00407CB50025DB
:102A400014E06946284601F013FE064666B9F748C9
:102A500050F8254044B1012C06D0D4E9020100EB26
:102A6000810060640198A064681CC5B23F2DE8D95C
:102A70007CBD002400BF02E0282001F003FFEC48E9
:102A800000780028F8D0EB4800686421B0FBF1F032
:102A9000E84908600846006828B90020E64908703F
:102AA000FF2001F027FE00BF01F0C4FF0446E34809
:102AB0000068E34908600020E0490860204601F012
:102AC000BDFFDF480068DB490968B0FBF1F0C0F1E9
:102AD0006400D949087002F00CF8FFF7AFFF14202A
:102AE00001F0D0FEE0E700B587B00320002180228E
:102AF000D44BCDE90132CDE903104FF6FE703E23F1
:102B0000D14A0090AFF2950001F0CBFB06AACFA10D
:102B10003E2001F02FFD07B000BD002400BF00BF24
:102B200001F088FF0446C5480068401CC34908609E
:102B3000204601F083FF01F0DBFFF1E700B587B02D
:102B4000032000218022C54BCDE90132CDE90310DD
:102B50004FF6FF703F23C24A0090AFF2410001F0F0
:102B6000A0FB06AABFA13F2001F004FD07B000BDF5
:102B700004E0002200F8012B4A1E91B20029F8D18E
:102B8000704770B5C821BB48FFF7F2FF00230FE084
:102B9000581C85B203EB8300B64901EB800405EBBA
:102BA000850001EB8006002020706660581C83B20F
:102BB000092BEDD303EB8300AE4901EB8004002029
:102BC000207060600846AC49086070BD70B54FF475
:102BD0007C71AA48FFF7CCFF4FF480719348FFF750
:102BE000C7FF002413E0601CC5B2C4EBC40000EBB7
:102BF0004000A24901EB8003C5EBC50000EB40009B
:102C000001EB80065E619EA0D864601CC4B20B2CF0
:102C1000E9D3C4EBC40000EB4000984901EB80030A
:102C20000020586196A0D864002096490860934817
:102C30009549086070BD0021944A1170002004E09D
:102C40000021934A1154411CC8B20828F8D300212E
:102C5000904A1170904A1170904A1160904A116028
:102C6000704700208F4908608F4908708F490870AD
:102C70008F4908708F4908708F4908606F49086054
:102C80006F4908606B49086069490870704710B562
:102C900001F02AFFFFF7E5FFFFF7CDFFFFF796FFF3
:102CA000FFF76FFF00F0EAFE01F0E1F9FFF746FFE2
:102CB000FFF719FF01F019FF10BD7E4800780128C9
:102CC00008D179480078FF2804D277480078401C62
:102CD00075490870704779496C4A1278885C6C496C
:102CE000095C764A515C01EBC0016B4A1170704778
:102CF00010B500246F480078012830D101F09AFE09
:102D000004466948007820B167480078401E66494B
:102D1000087065480078F8B964480078E0B9FFF7B2
:102D2000DAFF42485C49097850F821005B490860A5
:102D3000594800785749097888420DD057480068AB
:102D4000806B401C5549096888635B480068401CDB
:102D50005949086001F08DFE204601F06FFE10BD5C
:102D600010B5002453480078012811D101F062FE0B
:102D700004464D48007840B94C480078FF2804D2FA
:102D80004A480078401C49490870204601F056FE28
:102D900010BD10B5002401F04DFE044642480078F5
:102DA000F8B942480078E0B9FFF795FF1F483A4963
:102DB000097850F8210039490860374800783549CA
:102DC000097888420DD035480068806B401C334933
:102DD0000968886338480068401C3749086001F07A
:102DE00041FE204601F02AFE10BD10B500243148F6
:102DF000007801286FD101F01DFE04462B480078B1
:102E000080B12A480078401E28490870084600789A
:102E100048B92548007838B9204601F00FFEFFF781
:102E2000B8FF58E054E04FE04AE00000F80C002002
:102E300058000020500000204C00002068000020B6
:102E400054000020F8080020F40A002075432F4F9A
:102E5000532D49492053746174000000F80A002082
:102E6000F40C002075432F4F532D49492049646CC1
:102E700065000000E007002044000020F80D00205D
:102E80003F00000078000020700000205D0000205E
:102E90005E0000205B0000205C0000207400002029
:102EA0006C00002084000020590000205A000020FF
:102EB0006700002066000020400000200667000830
:102EC000204601F0BBFD06E0204601F0B7FD02E020
:102ED000204601F0B3FD10BD10B5EB48007890B965
:102EE000FFF7F9FEE9480078E9490870E948E74941
:102EF000097850F82100E849086008460068E74969
:102F0000086001F09EFD10BD10B50024022001F004
:102F1000B9FC01F08FFD04460020E149086020461D
:102F200001F08CFD142001F0ADFC01F083FD04469E
:102F3000DB480068DB4908600120DB490870204657
:102F400001F07CFD10BD70B5002601F022FE01F0FD
:102F500071FD0646D5480068401CD44908603046DB
:102F600001F06CFDC8480078012853D1D0480078A2
:102F700020B1012804D0022809D103E001250BE08B
:102F8000002509E001250120C949087004E0012558
:102F90000020C749087000BF00BF05B970BDC54813
:102FA000046833E001F046FD0646E06A50B3E06A8B
:102FB000401EE062E06A28BB94F8300000F0370061
:102FC00040B114F8300F00F0C8002070012060708C
:102FD000303C02E0002084F8310094F8300000F02A
:102FE000080078B93434A078B34909780843B24965
:102FF00008702078B149085C6178084314F83419E6
:10300000AE4A50546469304601F018FD94F832001D
:103010003F28C7D100BFC1E740F223107047704777
:1030200010B590F8342001F10B039B5C90F835400B
:10303000A34301F10B04A35423469B5C23B98B7A71
:1030400090F83640A3438B7210BD2DE9F04F054632
:103050000F4690469946A87A99490E5C05F10B00F7
:10306000805D11F800B00BEBC60000F0FF0A894844
:1030700050F82A4000202034E0602760207C20EABD
:103080000800207484F81190207C203C00F0080097
:1030900068B994F836008849097808438649087069
:1030A0008648805D94F83510084384498855294640
:1030B0002046FFF7B5FF5046BDE8F08F10B5774AC0
:1030C0001268D061754A126892F8343000F10B0230
:1030D000D25C724B1B6893F835301A436F4B1B68F8
:1030E00093F8344000F10B031A55827A6B4B1B683E
:1030F00093F836301A438272684A126892F8341094
:103100006E4A525C654B1B6893F835309A436B4BA3
:103110005A541A46525C42B9604A126892F83630E4
:10312000654A12789A43644B1A7010BD014600221A
:103130008A72002005E0002301F10B021354421CA7
:10314000D0B20828F7D3704705E011F8013B00F82A
:10315000013B531E9AB2002AF7D170470146002066
:1031600002E0491C421CD0B20A78002AF9D170470B
:103170002DE9F84F05460F4690469946DDE90AAB22
:103180000020009001F056FC00904E480468002C8E
:1031900075D0183454F8040C4A490860009801F0BE
:1031A0004DFC44F8187CA57600202076607660619E
:1031B00044F814BC44F80CAC44F8108C0C9824F877
:1031C000080C24F8069C0020E077E810207705F032
:1031D0000700E076217F01208840A077E17E012072
:1031E0008840607700206060E060A0602062A0629C
:1031F0006062E0622063AFF278306063183C0026C2
:1032000006E0002104F1500040F82610701CC6B200
:10321000002EF6D0204601F0BBFC204601F066FCF3
:1032200001F008FC00901B4840F825402148006848
:1032300060610020A0611F48006810B11D4800684F
:1032400084611C4804603434A0781B490978084321
:103250001949087020781949085C6178084314F806
:103260003419164A505418480078401C1649087002
:10327000009801F0E3FB0020BDE8F88FFFE700981D
:1032800001F0DCFB4220F7E7660000205C00002034
:103290005B000020F80C0020740000206C0000206F
:1032A000680000205000002058000020840000200A
:1032B0007C000020780000205D0000205E000020DF
:1032C0000667000870000020670000202DE9F05F0D
:1032D00004460F4691461E464FF0000B2078052805
:1032E00004D0012030700020BDE8F09F09F0800A72
:1032F000BAF1000F04D029F080094FF0010801E075
:103300004FF000080020307001F094FB8346B9F1C3
:10331000000F2CD0B9F1010F3BD0B9F1020F03D04F
:10332000B9F1030F46D111E0208900EA0705BD423B
:1033300006D1B8F1010F05D12089A843208101E011
:1033400070203070584601F079FB3AE0208900EA9D
:10335000070535B1B8F1010F05D12089A8432081B7
:1033600001E070203070584601F068FB29E02089A8
:1033700027EA0005BD4206D1B8F1010F05D1208929
:103380002843208101E070203070584601F056FB40
:1033900017E0208927EA000535B1B8F1010F05D102
:1033A00020892843208101E070203070584601F0C8
:1033B00045FB06E0584601F041FB00256F203070C8
:1033C00000BF00BF28468FE72DE9F04106460D46B5
:1033D0000027FA48007820B1102028700020BDE8AE
:1033E000F08101F027FB0746F548046884B10068C6
:1033F0004068F34908600520207026810020606045
:10340000F0A0E060384601F019FB0020287004E0CD
:10341000384601F013FB722028702046DFE730B5F4
:1034200001464A6808682AB9CC68606028B100255E
:10343000456002E0106000B142608B6800255D626B
:1034400030BDF0B506460F46B468002028346060F1
:103450002780207A00F0DF00207200206072207A3E
:10346000283C88B93434A078D74909780843D6492C
:1034700008702078D549085C6178084314F834193D
:10348000D24A5054012500E000253046FFF7C7FF1F
:103490002846F0BD2DE9F0470446894615464FF011
:1034A000000AC648007820B10F2028702046BDE8E9
:1034B000F0872078052803D0012028702046F6E701
:1034C00001F0B8FA8246606808B1012700E00027E1
:1034D000B9F1000F03D0B9F1010F3CD119E08FB958
:1034E000B8A0E06000202070B5480068606000204F
:1034F0002081B3480460504601F0A0FA00202870F3
:10350000002605E0504601F099FA49202870264629
:1035100028E0D4F8048005E000214046FFF791FF41
:10352000D8F80080B8F1000FF6D1A6A0E060002026
:103530002070A3480068606000202081A0480460DB
:10354000504601F07BFA012F01D1FFF722FC002049
:103550002870002606E0504601F070FA0720287017
:10356000264600BF00BF3046A1E72DE9F0410546E1
:103570000E46144600279148007820B11120207093
:103580000020BDE8F08101F055FA074628780528AB
:1035900006D0384601F052FA012020700020F0E7F2
:1035A000E86830603068FFF7D9FD8046384601F0A2
:1035B00045FA002020704046E3E72DE9F04105463A
:1035C0000E46144600277D48007818B1122020705E
:1035D000BDE8F08101F02EFA07462878052805D0CD
:1035E000384601F02BFA01202070F1E7EE603846F2
:1035F00001F024FA0020207000BFE9E7F0B514467E
:10360000059E734F3F6897F8307047F02007DFF84A
:10361000C0C1DCF800C08CF830700027DFF8B0C102
:10362000DCF800C08CF83170694F3F68FE62684F6B
:103630003F6879620C828B74654F3F688F60476882
:103640000F6000274F60C860456805B16960416040
:103650005F4F3F6897F834205C4FBF5CDFF870C164
:10366000DCF800C09CF835C027EA0C07DFF85CC125
:103670000CF802706746BF5C5FB9554F3F6897F81A
:1036800036C0514F3F7827EA0C07DFF83CC18CF871
:103690000070F0BD2DE9F04F89B005460F46914608
:1036A0009A46129E002002904448007828B10220D9
:1036B0003070002009B0BDE8F08F4648007818B19E
:1036C0000D2030700020F5E72878052803D0012070
:1036D00030700020EEE709F0800BBBF1000F04D042
:1036E00009F07F094FF0010801E04FF0000801F0F8
:1036F000A1F90290B9F1000F4AD0B9F1010F78D0C9
:10370000B9F1020F03D0B9F1030F71D120E028897C
:1037100000EA0704BC420FD1B8F1010F02D1288999
:10372000A04328812A4800680485029801F086F9A0
:10373000002030702046BDE74B463A4604A9284693
:10374000CDF800A0FFF75AFF029801F077F978E072
:10375000288900EA07047CB1B8F1010F02D1288959
:10376000A04328811A4800680485029801F066F990
:103770000020307020469DE74B463A4604A9284673
:10378000CDF800A0FFF73AFF029801F057F958E092
:10379000288927EA0004BC421ED1B8F1010F02D1EA
:1037A0002889204328810A4800680485029801F08E
:1037B00045F90020307020467CE71AE059000020CF
:1037C000480000203F0000005D0000205E00002057
:1037D0006C0000205A0000204B463A4604A92846B7
:1037E000CDF800A0FFF70AFF029801F027F928E0C2
:1037F0001FE0288927EA00047CB1B8F1010F02D14B
:10380000288920432881B14800680485029801F086
:1038100015F90020307020464CE74B463A4604A983
:103820002846CDF800A0FFF7E9FE029801F006F95E
:1038300007E0029801F002F900246F203070204662
:1038400038E700BFFFF7A5FA01F0F4F802909F48AF
:10385000006890F8310020B39C48006890F831006F
:10386000039000209949096881F8310004A8FFF706
:10387000D6FD00209549096881F83000029801F0D2
:10388000DDF800240398012805D0022802D10E207B
:10389000307003E000BF0A20307000BF00BF204638
:1038A00008E78A480068048DB8F1010F1ED1B9F10C
:1038B000000F0ED0B9F1010F0CD0B9F1020F03D0F7
:1038C000B9F1030F0AD100E000BF2889A043288185
:1038D0000BE000BF28892043288106E0029801F010
:1038E000ADF86F2030700020E4E600BF029801F0D0
:1038F000A5F8002030702046DCE670B5002501F008
:1039000099F8054671480068048D284601F096F83C
:10391000204670BD2DE9FC5F0446894692461E464E
:10392000002000902078052804D00120307000206D
:10393000BDE8FC9F01F07EF80090BAF1000F03D0C3
:10394000BAF1010F0AD104E0208920EA09002081A0
:103950000BE0208940EA0900208106E0009801F090
:103960006DF8712030700020E2E700BF4FF0000BCF
:10397000656855E0A87C40B3012838D0022802D001
:10398000032844D111E02089298A00EA0107288A06
:10399000B84209D139462846FFF753FD8046B8F1B1
:1039A000010F01D14FF0010B38E02089298A00EA8C
:1039B00001074FB139462846FFF743FD8046B8F16D
:1039C000010F01D14FF0010B28E0288A218920EA5C
:1039D0000107288AB84209D139462846FFF731FD48
:1039E0008046B8F1010F01D14FF0010B16E0288A93
:1039F000218920EA01074FB139462846FFF721FD0A
:103A00008046B8F1010F01D14FF0010B06E000989C
:103A100001F014F86F203070002089E700BF2D6896
:103A2000002DA7D1009801F009F8BBF1010F01D1D9
:103A3000FFF7AFF900F0FEFF009020890190009899
:103A400000F0FCFF00203070019871E72DE9F04193
:103A500004460D4600272078052804D00120287050
:103A60000020BDE8F08100F0E5FF074626893846D2
:103A700000F0E4FF002028703046F2E72DE9F04125
:103A800050211348FFF774F800250EE0681C86B239
:103A90000F4800EB051400EB06170020207067604C
:103AA000AFF2E020E060681C85B2042DEED3084838
:103AB00000EB0514002020706060AFF2F820E06099
:103AC000034804490860BDE8F08100006C00002054
:103AD000A8080020480000202DE9F04106460D46C8
:103AE0004FF000083078022804D001202870002010
:103AF000BDE8F08100F09EFF80467468E08A78B1EE
:103B00002169081D20610F68E08A401EE082A168DB
:103B10002069884201D1606820610020287002E09D
:103B20001F2028700027404600F088FF3846DFE756
:103B30002DE9F04106460F464FF00008F74800789F
:103B400010B10020BDE8F08100F074FF8046F44819
:103B50000568006820B1F24800684068F0490860D4
:103B6000404600F06BFF3DB300F064FF8046ED4837
:103B70000468C4B100680068EA490860404600F083
:103B80005DFF666006EB8700A060E6602661A782A5
:103B90000020E08202202870002028816C602846E6
:103BA000FFF7C4FA08E0DE4800686860DC4805609A
:103BB000404600F043FF00252846C3E72DE9F047C3
:103BC0000446894615464FF0000A2078022804D0A2
:103BD000012028702046BDE8F087D048007818B151
:103BE0000F2028702046F6E700F024FF8246A07AD6
:103BF00010B14FF0010801E04FF00008B9F1000FDB
:103C000003D0B9F1010F45D11FE0B8F1000F15D174
:103C10006668C44800683060C248066000202070B2
:103C2000BF480068606000202081BD4804605046A5
:103C300000F004FF00202870002705E0504600F047
:103C4000FDFE4920287027462BE005E000230422D2
:103C500019462046FFF7F9F9A07A0028F6D16668E0
:103C6000B04800683060AF48066000202070AC4863
:103C70000068606000202081A9480460504600F080
:103C8000DDFEB8F1010F01D1FFF783F800202870A5
:103C9000002706E0504600F0D1FE07202870274696
:103CA00000BF00BF384696E770B50546002600F015
:103CB000C1FE06466C686068E060606820610020B4
:103CC000E082304600F0BAFE002070BD2DE9F047DA
:103CD0000746884615464FF000093878022804D078
:103CE000012028700020BDE8F0878C48007818B1CA
:103CF000022028700020F6E78B48007818B10D20CC
:103D000028700020EFE700F095FE81467C68E08A8D
:103D100098B12169081D20610E68E08A401EE0828A
:103D2000A1682069884201D160682061484600F09E
:103D300085FE002028703046D5E77C48006890F862
:103D4000300040F004007949096881F83000002013
:103D50007649096881F8310074480068C0F82C8001
:103D60003846FFF7ABF9484600F068FEFFF711F858
:103D700000F060FE81466D48006890F8310020B187
:103D800001280DD002280AD105E068480068066ABB
:103D9000002028700DE000260E20287009E000BFEA
:103DA000394662480068FFF73BF900260A20287070
:103DB00000BF00BF00205D49096881F830005B4901
:103DC000096881F8310059490968C861574909688B
:103DD0000862484600F032FE304684E72DE9F041A3
:103DE00004460F4615464FF000082078022804D0FC
:103DF000012028700020BDE8F08100F01BFE804605
:103E0000A07A20B300267FB1012F0CD107E0022356
:103E1000042200212046FFF718F9701CC6B2A07AD0
:103E20000028F4D109E000BF02230422002120462B
:103E3000FFF70BF9701CC6B200BF00BF404600F090
:103E4000FDFDFEF7A6FF0E2028703046D3E7404662
:103E500000F0F4FD0020287000BFCCE72DE9F04110
:103E600005460E4600272878022802D00120BDE82A
:103E7000F08100F0DFFD0746A87A60B1002304223C
:103E800031462846FFF7E1F8384600F0D7FDFEF747
:103E900080FF0020EBE76C68E08AA18A884204DB9F
:103EA000384600F0CBFD1E20E1E7E168081DE06028
:103EB0000E60E08A401CE082D4E90210884201D101
:103EC0006068E060384600F0B9FD0020CFE72DE9DA
:103ED000F04105460E4600272878022802D001202E
:103EE000BDE8F08100F0A6FD0746A87A60B1002386
:103EF000042231462846FFF7A8F8384600F09EFD18
:103F0000FEF747FF0020EBE76C68E08AA18A884251
:103F10000EDB384600F092FD1E20E1E7590000203C
:103F200044000020800000205A0000206C00002087
:103F300061682069884201D1A06820612069001F62
:103F4000206120690660E08A401CE082384600F06B
:103F500075FD0020C4E72DE9F04105460F461646E1
:103F60004FF000082878022802D00120BDE8F08137
:103F700000F060FD8046A87AE8B106F0010050B17B
:103F800005E00023042239462846FFF75EF8A87AA8
:103F90000028F6D105E00023042239462846FFF721
:103FA00054F8404600F04AFD06F0040008B9FEF758
:103FB000F0FE0020DAE76C68E08AA18A884204DB20
:103FC000404600F03BFD1E20D0E706F0020058B14D
:103FD00061682069884201D1A06820612069001FC2
:103FE00020612069076009E0E168081DE0600F605A
:103FF000D4E90210884201D16068E060E08A401C88
:10400000E082404600F01AFD0020AFE72DE9F047BE
:1040100005460C464FF0000A2878022802D00120FD
:10402000BDE8F08700F006FD8246A87A207405F10D
:104030000B0804F10809002705E018F8010B09F83E
:10404000010B781CC7B2082FF7D36E68F08A18B13D
:1040500030690068206001E000202060F08AA080C4
:10406000B08AE080504600F0E9FC0020D8E72DE956
:10407000F04178211048FEF77BFD00240DE0601C24
:1040800086B204EB44000C4901EBC00506EB460088
:1040900001EBC0072F60601C84B2042CEFD304EB4B
:1040A0004400054901EBC00500202860084603498B
:1040B0000860BDE8F0810000E811002080000020C9
:1040C0002DE9FF5F814688460020009000F0B2FC99
:1040D0000090F94850F8280030B1009800F0AEFC8C
:1040E000282004B0BDE8F09FB9F1FF0F03D1F348D9
:1040F000006890F83290F04850F8294024B90098B0
:1041000000F09CFC2920ECE7012C04D1009800F081
:1041100095FC4320E5E74FEAE80708F00700039025
:104120000120B84000F0FF0A01210398814001F00E
:10413000FF0B0020E04941F82900084640F82840DC
:1041400014F8346FA07802906078343C0190DC4819
:10415000815D01980140D1B1D948805D01998843C2
:10416000D74988550846805D28B9D6480078029915
:104170008843D4490870D348007840EA0A00D149FE
:104180000870CF48C05D40EA0B00CD49C855E569CD
:10419000D5B105F10B00805D0199884305F10B0154
:1041A00088550846805D18B9A87A02998843A87294
:1041B000A87A40EA0A00A87205F10B00C05D40EA47
:1041C0000B0005F10B01C85584F8328084F8347077
:1041D000039884F8330084F836A084F835B000984A
:1041E00000F02CFCB8480078012801D1FEF7D1FD81
:1041F000002076E72DE9FE4F06460F4690461C4606
:104200004FF0000900F016FC8146B048007828B154
:10421000484600F013FC3C20BDE8FE8FA64850F84D
:10422000240060BB0120A44941F82400484600F066
:1042300005FC002342463946304600F05BFC8246CE
:10424000002000900190034602465146029020460D
:10425000FEF78EFF054635B99B48007801280CD142
:10426000FEF797FD09E000F0E5FB8146002092494A
:1042700041F82400484600F0E1FB2846CCE74846D8
:1042800000F0DCFB2820C7E702F0010343B102F095
:1042900002032BB102E0491E002308C00029FAD115
:1042A00070472DE9F04F85B081468A4693461C46FB
:1042B000DDE90F78129D0020039000F0BBFB039016
:1042C0008248007830B1039800F0B8FB3C2005B07C
:1042D000BDE8F08F784850F8240088BB012076496B
:1042E00041F82400039800F0A9FB2A4641463846CD
:1042F000FFF7CAFF2B465A465146484600F0FAFBE4
:1043000004901198CDE9008002953A4620460E9B14
:104310000499FEF72DFF064636B96B480078012850
:104320000CD1FEF736FD09E000F084FB039000207D
:10433000614941F82400039800F080FB3046C6E74D
:10434000FFE7039800F07AFB2820C0E72DE9F04151
:10435000054600275D48007810B14020BDE8F08197
:104360003F2D01D13E20F9E700F064FB0746FF2D09
:1043700003D15248006890F832504F4850F8254019
:1043800024B9384600F05AFB4320E7E7012C04D15A
:10439000384600F053FB3D20E0E714F8340F48495D
:1043A000085C617888432178454A505414F83409F0
:1043B0001146085C30B994F83610424800788843BA
:1043C00040490870E06918B12046E169FEF728FE0F
:1043D000666A16B13046FFF722F80020E06284F8E2
:1043E000300084F831003A480078FF2804D2384879
:1043F0000078401C36490870384600F01FFBFEF775
:104400000EFE00F017FB07463148007820B1304817
:104410000078401E2E490870204600F068FB2D48A9
:104420000078401E2B4908700020234941F82500E0
:10443000A06930B900206169886127496069086016
:1044400005E0D4E905014861D4E9051088612348F5
:10445000006860612148046021A0E064384600F0F3
:10446000EDFA19480078012801D1FEF792FC0020EE
:1044700074E72DE9F041044600273F2C02D13E208D
:10448000BDE8F081FF2C0BD100F0D4FA07460B48B1
:10449000006890F83760384600F0D0FA3046EFE711
:1044A00000F0C8FA0746044850F82450D5B93846F9
:1044B00000F0C4FA4320E3E7F80C00206C00002071
:1044C0005E0000205D0000206600002059000020F2
:1044D0005A000020670000207800002070000020B3
:1044E0003F000000012D04D1384600F0A7FA3D201E
:1044F000C6E73F2085F83700384600F09FFA0020D5
:10450000BEE72DE9F04706460F4614464FF0000877
:10451000D648007820B1112020700020BDE8F08737
:1045200000F088FA8046FF2E03D1D148006890F849
:104530003260D04850F8265035B9404600F07EFA37
:10454000432020700020E9E7012D06D1404600F00D
:1045500075FA432020700020E0E7E86C3860386886
:10456000FEF7FCFD8146404600F068FA002020700E
:104570004846D3E72DE9F04106460F4614464FF072
:104580000008BA48007818B112202070BDE8F08108
:1045900000F050FA8046FF2E03D1B548006890F82D
:1045A0003260B44850F826502DB9404600F046FA23
:1045B00043202070EAE7012D05D1404600F03EFA85
:1045C00043202070E2E7EF64404600F037FA002015
:1045D000207000BFDAE770B50546002600F02AFA21
:1045E0000646A44850F8254024B9304600F026FA83
:1045F000462070BD012C04D1304600F01FFA432044
:10460000F7E794F8300000F0080060B314F8300FBA
:1046100000F0F700207014F83009F8B9E06AC8B962
:104620003434A07894490978084393490870207875
:104630009249085C6178084314F834198F4A505441
:10464000304600F0FBF98E480078012809D1FEF7CA
:10465000A0FB06E0304600F0F1F902E0304600F041
:10466000EDF90020C5E7304600F0E8F94420C0E746
:104670002DE9F04707460D464FF0000A002028605C
:10468000686000F0D7F98246FF2F03D178480068B0
:1046900090F83270774850F827402CB9504600F017
:1046A000CDF94320BDE8F087012C04D1504600F03D
:1046B000C5F94320F6E7207C00F0010020B9504600
:1046C00000F0BCF94520EDE70026D4F80C90D4F8B2
:1046D0000880504600F0B2F900E0761C58F8041B40
:1046E0000029FAD0B0002860A9EB060080006860BD
:1046F0000020D7E72DE9F04105464FF0000800F013
:1047000099F98046FF2D05D15948006890F832503C
:10471000012608E05648006890F83200A84201D10E
:10472000012600E00026534850F825402CB94046A9
:1047300000F084F94820BDE8F081012C04D1404606
:1047400000F07CF94320F6E794F834704B48C05DE4
:1047500094F8351088434949C8550846C05D30B9BA
:1047600094F836104448007888434349087094F818
:10477000300040F0080084F83000404600F05EF958
:10478000012E01D1FEF705FB0020D4E72DE9F04111
:1047900005460E46002700F04DF90746FF2D03D1D0
:1047A0003348006890F83250324850F825402CB910
:1047B000384600F043F92920BDE8F081012C04D1EE
:1047C000384600F03BF94320F6E7542221463046B4
:1047D000FEF7BAFC384600F031F90020ECE72DE98D
:1047E000F04704460E4617464FF0000900F022F944
:1047F0008146FF2C02D11E48056802E01D4850F892
:10480000245005F1500050F82680484600F016F973
:10481000002038704046BDE8F0872DE9F047044697
:104820000E46174698464FF0000900F003F98146FE
:10483000FF2C02D10E48056802E00E4850F82450C3
:1048400005F1500040F82670484600F0F7F80020C7
:1048500088F80000BDE8F08710B50548006800F052
:1048600099F9FF20FFF772FD10BD000059000020EC
:104870006C000020F80C00205D0000205E0000208D
:104880006600002070B5054600266348007800B138
:1048900070BD6248007800B1FAE71DB300F0CAF8B5
:1048A00006465F48006890F834405E48005D5C4909
:1048B000096891F8351088435A4908550846005D43
:1048C00040B95748006890F8361057480078884338
:1048D0005549087052480068C562304600F0AEF88D
:1048E000FEF757FA00BFD3E72DE9F04104460D4625
:1048F00016461F464848007810B15520BDE8F081A3
:104900004648007808B13220F8E7B81CC82148436F
:104910004FF47A71B0FBF1F14FF461606043C5EB85
:10492000051200EB8200304400EBC00202EB0010E5
:1049300001EBC0084046FFF7A5FF0020DEE770B599
:10494000054600263F2D01D32A2070BD00F072F8E5
:104950000646364850F8254024B9304600F06EF837
:104960004320F2E7012C04D1304600F067F84320E1
:10497000EBE7E06A20B9304600F060F85020E4E749
:104980000020E06294F8300000F0370040B114F8E5
:10499000300F20F03700207001206070303C02E0C2
:1049A000002084F8310094F8300000F00800A8B925
:1049B0003434A0781C49097808431B4908702078D2
:1049C0001849085C6178084314F83419154A5054A2
:1049D000304600F033F8FEF7DCF902E0304600F034
:1049E0002DF80020B1E770B5002500F023F805464A
:1049F0000F480468284600F021F8204670BD70B5C5
:104A00000446002500F016F80546094804602846CB
:104A100000F014F870BD0000590000205A0000207A
:104A20006C0000205E0000205D000020F80C0020DB
:104A300084000020EFF3108072B6704780F3108876
:104A40007047204C204D25604FF0000484F3098806
:104A50001E4C4FF0010525701D4C4FF08055256010
:104A600062B6FEE730B41A4C4FF08055256030BC7A
:104A7000704730B4164C4FF08055256030BC7047FD
:104A800000BF72B6EFF3098028B1203880E8F00F3C
:104A900010490968086000B50F4880475DF804EBCD
:104AA0000E480F490A7802700A480E490A680260E7
:104AB000106890E8F00F203080F309884EF0040E63
:104AC00062B6704720ED00E00000FFFF66000020A6
:104AD00004ED00E06C0000208F4B00085B0000201C
:104AE0005C000020740000207047704770477047DA
:104AF0007047704770B5044610464FF080750560EA
:104B0000051F28462C606FF00106051F28462E6001
:104B10004FF01236051F28462E604FF00336051F52
:104B200028462E604FF00236051F28462E6076106C
:104B3000051F28462E60051F284629604FF01136B4
:104B4000051F28462E604FF01036051F28462E60A0
:104B50004FF00936051F28462E604FF00836051F16
:104B600028462E604FF00736051F28462E604FF06E
:104B70000636051F28462E604FF00536051F2846CD
:104B80002E604FF00436051F28462E6070BD70471A
:104B9000704770477047704710B5431C02E010F82B
:104BA000011B71B18107FAD14FF0013202C88C1A92
:104BB0008C4314EAC211F9D0C01A0A0603D0C01EF1
:104BC00010BDC01A10BD0A0401D0801E10BD09021C
:104BD000FCD0401E10BD7047704770477047754647
:104BE00000F02CF8AE4605006946534620F0070059
:104BF000854618B020B5FCF773FDBDE820404FF0A6
:104C000000064FF000074FF000084FF0000B21F0B6
:104C10000701AC46ACE8C009ACE8C009ACE8C00983
:104C2000ACE8C0098D46704710B50446AFF300806C
:104C30002046BDE81040FBF7A0BA000000487047CE
:104C400060120020000000000000000000000000D2
:104C500000000404040404040004000000140A0A10
:104C60000000000000000000000014143F140A3F80
:104C70000A0A000000041E1505060C14150F040096
:104C8000000012150D0A142C2A1200000000040A5C
:104C90000A1E15150936000000020201000000007E
:104CA0000000000000201008080808080810200074
:104CB00000020408080808080804020000000004B4
:104CC000150E0E150400000000000404041F040467
:104CD00004000000000000000000000000020201CB
:104CE00000000000001F00000000000000000000A5
:104CF0000000000000020000001008080804040280
:104D00000202010000000E1111111111110E00001C
:104D10000000040604040404040E000000000E1148
:104D200011080402011F000000000E11100C1010E9
:104D3000110E00000000080C0A0A091E08180000E5
:104D400000001F01010F1010110E000000000E09DD
:104D5000010F1111110E000000001F0908040404C6
:104D60000404000000000E11110E1111110E0000BC
:104D700000000E1111111E10120E000000000000A4
:104D80000400000000040000000000000004000017
:104D90000004040000201008040204081020000091
:104DA000000000001F00001F0000000000020408B7
:104DB000102010080402000000000E111108040465
:104DC0000004000000000E111915151D011E000041
:104DD000000004040C0A0A1E1233000000000F1227
:104DE000120E1212120F000000001E11010101012B
:104DF000110E000000000F1212121212120F00000A
:104E000000001F120A0E0A02121F000000001F12EB
:104E10000A0E0A020207000000001C1201013911EB
:104E2000120C000000003312121E12121233000086
:104E300000001F0404040404041F000000003E08D6
:104E40000808080808090700000037120A060A0ABD
:104E5000123700000000070202020202223F000097
:104E600000001B1B1B1B15151515000000003B1235
:104E700016161A1A1217000000000E111111111146
:104E8000110E000000000F12120E020202070000B5
:104E900000000E1111111117190E180000000F1249
:104EA000120E0A121237000000001E11010608102F
:104EB000110F000000001F1504040404040E00007C
:104EC0000000331212121212120C000000003312F2
:104ED000120A0A0C0404000000001515150E0A0A37
:104EE0000A0A000000001B0A0A04040A0A1B000048
:104EF00000001B0A0A040404040E000000001F093D
:104F000008040402121F0000001C0404040404042A
:104F100004041C0000020202040408080810000037
:104F2000000E08080808080808080E0000040A0017
:104F30000000000000000000000000000000000071
:104F40000000003F0004000000000000000000001E
:104F500000000000000C121C123C000000000302C4
:104F6000020E1212120E000000000000001C1202BD
:104F7000021C000000001810101C1212123C00004D
:104F800000000000000C121E021C0000000038048B
:104F9000041E0404041E000000000000003C120C6B
:104FA000021E221C00000302020E12121237000021
:104FB0000000040000060404040E000000000800C5
:104FC000000C08080808080700000302023A0A0E4D
:104FD000123700000000070404040404041F00004A
:104FE00000000000000F151515150000000000005E
:104FF000000F12121237000000000000000C121205
:10500000120C000000000000000F1212120E020726
:1050100000000000001C1212121C103800000000DA
:10502000001B06020207000000000000001E020C28
:10503000101E000000000004040E04040418000008
:1050400000000000001B1212123C000000000000D3
:105050000037120A0C040000000000000015150EB5
:105060000A0A000000000000001B0A040A1B0000DE
:10507000000000000037120A0C04040300000000C6
:10508000001E0804041E0000001808080804080890
:105090000808180008080808080808080808080888
:1050A0000006040404080404040406000225180091
:1050B00000000000000000000000000000000000F0
:1050C00000000000000000000000000808080808B8
:1050D000080800001818000000486C2412000000A6
:1050E00000000000000000000000002424247F12C3
:1050F00012127F12121200000000081C2A2A0A0C49
:105100001828282A2A1C0808000000222515151531
:105110002A585454542200000000000C1212120AA3
:1051200076252911916E0000000606040300000098
:1051300000000000000000000040201010080808D7
:105140000808081010204000000204080810101081
:1051500010101008080402000000000008086B1C72
:105160001C6B080800000000000000000808080888
:105170007F08080808000000000000000000000090
:10518000000000000606040300000000000000000C
:10519000FE00000000000000000000000000000011
:1051A00000000000060600000000804040202010A3
:1051B00010080804040202000000001824424242C1
:1051C0004242424224180000000000080E0808086D
:1051D00008080808083E00000000003C4242422047
:1051E00020100804427E00000000003C42422018CB
:1051F00020404042221C00000000002030282424CF
:1052000022227E20207800000000007E0202021A86
:1052100026404042221C0000000000382402021AEE
:1052200026424242241800000000007E2222101074
:1052300008080808080800000000003C4242422418
:1052400018244242423C000000000018244242421E
:1052500064584040241C00000000000000001818A2
:105260000000000018180000000000000000000806
:10527000000000000008080400000040201008049E
:1052800002040810204000000000000000007F0021
:1052900000007F0000000000000000020408102051
:1052A00040201008040200000000003C424246403A
:1052B00020101000181800000000001C225A55553C
:1052C00055552D42221C0000000000080818141437
:1052D000243C224242E700000000001F2222221E3E
:1052E00022424242221F00000000007C4242010193
:1052F00001010142221C00000000001F2242424224
:1053000042424242221F00000000003F4212121E91
:1053100012120242423F00000000003F4212121EE1
:1053200012120202020700000000003C22220101CA
:1053300001712122221C0000000000E7424242428B
:105340007E42424242E700000000003E0808080892
:1053500008080808083E00000000007C101010102B
:10536000101010101010110F0000007722120A0EFA
:105370000A12122222770000000000070202020235
:1053800002020202427F0000000000773636363605
:105390002A2A2A2A2A6B0000000000E346464A4ACD
:1053A00052525262624700000000001C22414141FB
:1053B00041414141221C00000000003F4242424264
:1053C0003E020202020700000000001C224141418F
:1053D00041414D53321C60000000003F4242423EBA
:1053E0001212222242C700000000007C4242020446
:1053F00018204042423E00000000007F4908080893
:1054000008080808081C0000000000E74242424269
:1054100042424242423C0000000000E74242222455
:1054200024141418080800000000006B4949494979
:105430005555362222220000000000E7422424189D
:105440001818242442E700000000007722221414D8
:1054500008080808081C00000000007E2120101029
:1054600008040442423F00000078080808080808C1
:105470000808080808087800000002020404080868
:105480000810102020204040001E10101010101096
:105490001010101010101E00003844000000000012
:1054A00000000000000000000000000000000000FC
:1054B00000000000000000FF0006080000000000DF
:1054C0000000000000000000000000000000003CA0
:1054D0004278444242FC0000000000030202021A2B
:1054E00026424242261A0000000000000000003858
:1054F000440202024438000000000060404040784E
:105500004442424264D80000000000000000003C19
:10551000427E0202423C0000000000F08808087E43
:1055200008080808083E0000000000000000007C99
:1055300022221C023C42423C000000030202023ACA
:105540004642424242E700000000000C0C00000E00
:1055500008080808083E000000000030300000384D
:10556000202020202020221E0000000302020272C0
:10557000120A1612227700000000000E0808080820
:1055800008080808083E0000000000000000007F36
:105590009292929292B70000000000000000003B3F
:1055A0004642424242E70000000000000000003C8A
:1055B00042424242423C0000000000000000001B4A
:1055C00026424242221E020700000000000000782E
:1055D00044424242447840E000000000000000776E
:1055E0004C040404041F0000000000000000007CC4
:1055F00042023C40423E0000000000000008083E1D
:1056000008080808083000000000000000000063DF
:105610004242424262DC000000000000000000E75D
:10562000422424140808000000000000000000EBE1
:105630004949555522220000000000000000007674
:1056400024181818246E000000000000000000E775
:105650004224241418080807000000000000007EFF
:1056600022100808447E000000C0202020202010C6
:10567000202020202020C00010101010101010102A
:10568000101010101010101000060808080808105C
:1056900008080808080806000C32C20000000000D4
:1056A00000000000000000000000000000001FE0FB
:1056B0001FC06FD077B07030703070307030703085
:1056C000703020107030703070307030703070304A
:1056D00067D06FE01FE01FE000000000000038000E
:1056E000780036002E000E000E000E000E000E0098
:1056F0000400000004000E000E000E000E000E005C
:105700000E000E000E0004000000000000003FF03C
:105710007FE07FE03FD000300030003000300030CC
:105720001FD01FE02FE077E0700070007000600075
:105730006FF05FF03FF03FF00000000000003FF02E
:105740007FF07FE03FD0003000300030003000308C
:105750003FB07FD07FD03FB000300030003000300D
:105760003FD07FE07FF03FF00000000000002010FD
:105770007030703070307030703070307030703029
:1057800037B00FD00FD007B00030003000300030FD
:1057900000300030003000100000000000001FF05A
:1057A0005FF06FF077F070007000700070003F8065
:1057B0001FC01FC00FB0003000300030003000307C
:1057C0003FD07FD07FE03FE00000000000001FF0EE
:1057D0001FF06FF077F070007000700070007000C4
:1057E00077C02FC06FD077B07030703070307030AD
:1057F00067D06FE01FE01FE00000000000003FE006
:105800007FE07FD03F90003000300030003000302B
:105810000030001000100030003000300030003048
:1058200000300030003000100000000000001FE0D9
:105830001FC06FD077B07030703070307030703003
:1058400077B02FD06FF077B070307030703070302C
:1058500067D06FE01FE01FC00000000000001FE0E5
:105860001FC06FD077B070307030703070307030D3
:105870006FB00FD00FF00FB00030003000300030AC
:105880003FD07FE07FE03FC000000000000000004C
:105890000000000000000000600060002000000028
:1058A0000000000000000000200060006000000018
:1058B00000000000000000000000000000000000E8
:1058C00000000000000000000000000000000000D8
:1058D0000000000000000000000000003C003C0050
:1058E0003C00000000000000D1EE100011F8101084
:1058F0001020FC40108031FE389254925492911244
:1059000011221222144210941108D4BD1028102420
:1059100010207DFC11201124FD2411281128511084
:105920005D94512C704450004FFE8000D5E601007C
:1059300001007FFC01001FF010101FF010101FF07D
:1059400010101FF01010FFFE082010102008CBA729
:10595000082008204820482049FC4924492449249B
:1059600049244924492409341128102020204020AA
:10597000D6D51080108020F821084B10FCA01040D4
:1059800020A04318FC0640C000201810E1804060B1
:105990000010D3D002000200FFFE040004000FF04C
:1059A000081018102FF0481088100FF00810081079
:1059B00008500820D2BB00000000000000000000DA
:1059C00000000000FFFE00000000000000000000DA
:1059D000000000000000CCEC00003FF801000100D6
:1059E00001000100FFFE010002800280044004402B
:1059F000082010102008C006CED204400E5078486F
:105A000008480840FFFE084008440A440C48183083
:105A100068220852088A2B061002C3C709000880B2
:105A200008BC120412043204320452049204120418
:105A3000120412041204120412141208B6BC080054
:105A400008BE7EA209240A24FFE8082410243F226D
:105A50006122A1223F34212821203F202120BBE1C7
:105A6000010001000280044008203018CFE6000049
:105A700000007FFC02000400082010103FF810080E
:105A8000B3C90050004800403FFE20402040204461
:105A90003E4422442228222822122A32444A4086A6
:105AA0008102CEAA010021001100110001007FF83F
:105AB0000208020802880448044808081008200860
:105AC00040508020C4C700007E7C12441248124817
:105AD0007E50124812487E441244124422682250DA
